{
  "_format": "hh-sol-artifact-1",
  "contractName": "RoboPunksNFT",
  "sourceName": "contracts/RoboPunksNFT.sol",
  "abi": [
    {
      "inputs": [],
      "stateMutability": "payable",
      "type": "constructor"
    },
    {
      "anonymous": false,
      "inputs": [
        {
          "indexed": true,
          "internalType": "address",
          "name": "owner",
          "type": "address"
        },
        {
          "indexed": true,
          "internalType": "address",
          "name": "approved",
          "type": "address"
        },
        {
          "indexed": true,
          "internalType": "uint256",
          "name": "tokenId",
          "type": "uint256"
        }
      ],
      "name": "Approval",
      "type": "event"
    },
    {
      "anonymous": false,
      "inputs": [
        {
          "indexed": true,
          "internalType": "address",
          "name": "owner",
          "type": "address"
        },
        {
          "indexed": true,
          "internalType": "address",
          "name": "operator",
          "type": "address"
        },
        {
          "indexed": false,
          "internalType": "bool",
          "name": "approved",
          "type": "bool"
        }
      ],
      "name": "ApprovalForAll",
      "type": "event"
    },
    {
      "anonymous": false,
      "inputs": [
        {
          "indexed": true,
          "internalType": "address",
          "name": "previousOwner",
          "type": "address"
        },
        {
          "indexed": true,
          "internalType": "address",
          "name": "newOwner",
          "type": "address"
        }
      ],
      "name": "OwnershipTransferred",
      "type": "event"
    },
    {
      "anonymous": false,
      "inputs": [
        {
          "indexed": true,
          "internalType": "address",
          "name": "from",
          "type": "address"
        },
        {
          "indexed": true,
          "internalType": "address",
          "name": "to",
          "type": "address"
        },
        {
          "indexed": true,
          "internalType": "uint256",
          "name": "tokenId",
          "type": "uint256"
        }
      ],
      "name": "Transfer",
      "type": "event"
    },
    {
      "inputs": [
        {
          "internalType": "address",
          "name": "to",
          "type": "address"
        },
        {
          "internalType": "uint256",
          "name": "tokenId",
          "type": "uint256"
        }
      ],
      "name": "approve",
      "outputs": [],
      "stateMutability": "nonpayable",
      "type": "function"
    },
    {
      "inputs": [
        {
          "internalType": "address",
          "name": "owner",
          "type": "address"
        }
      ],
      "name": "balanceOf",
      "outputs": [
        {
          "internalType": "uint256",
          "name": "",
          "type": "uint256"
        }
      ],
      "stateMutability": "view",
      "type": "function"
    },
    {
      "inputs": [
        {
          "internalType": "uint256",
          "name": "tokenId",
          "type": "uint256"
        }
      ],
      "name": "getApproved",
      "outputs": [
        {
          "internalType": "address",
          "name": "",
          "type": "address"
        }
      ],
      "stateMutability": "view",
      "type": "function"
    },
    {
      "inputs": [
        {
          "internalType": "address",
          "name": "owner",
          "type": "address"
        },
        {
          "internalType": "address",
          "name": "operator",
          "type": "address"
        }
      ],
      "name": "isApprovedForAll",
      "outputs": [
        {
          "internalType": "bool",
          "name": "",
          "type": "bool"
        }
      ],
      "stateMutability": "view",
      "type": "function"
    },
    {
      "inputs": [],
      "name": "isPublicMintEnabled",
      "outputs": [
        {
          "internalType": "bool",
          "name": "",
          "type": "bool"
        }
      ],
      "stateMutability": "view",
      "type": "function"
    },
    {
      "inputs": [],
      "name": "maxPerWallet",
      "outputs": [
        {
          "internalType": "uint256",
          "name": "",
          "type": "uint256"
        }
      ],
      "stateMutability": "view",
      "type": "function"
    },
    {
      "inputs": [],
      "name": "maxSupply",
      "outputs": [
        {
          "internalType": "uint256",
          "name": "",
          "type": "uint256"
        }
      ],
      "stateMutability": "view",
      "type": "function"
    },
    {
      "inputs": [
        {
          "internalType": "uint256",
          "name": "quantity_",
          "type": "uint256"
        }
      ],
      "name": "mint",
      "outputs": [],
      "stateMutability": "payable",
      "type": "function"
    },
    {
      "inputs": [],
      "name": "mintPrice",
      "outputs": [
        {
          "internalType": "uint256",
          "name": "",
          "type": "uint256"
        }
      ],
      "stateMutability": "view",
      "type": "function"
    },
    {
      "inputs": [],
      "name": "name",
      "outputs": [
        {
          "internalType": "string",
          "name": "",
          "type": "string"
        }
      ],
      "stateMutability": "view",
      "type": "function"
    },
    {
      "inputs": [],
      "name": "owner",
      "outputs": [
        {
          "internalType": "address",
          "name": "",
          "type": "address"
        }
      ],
      "stateMutability": "view",
      "type": "function"
    },
    {
      "inputs": [
        {
          "internalType": "uint256",
          "name": "tokenId",
          "type": "uint256"
        }
      ],
      "name": "ownerOf",
      "outputs": [
        {
          "internalType": "address",
          "name": "",
          "type": "address"
        }
      ],
      "stateMutability": "view",
      "type": "function"
    },
    {
      "inputs": [],
      "name": "renounceOwnership",
      "outputs": [],
      "stateMutability": "nonpayable",
      "type": "function"
    },
    {
      "inputs": [
        {
          "internalType": "address",
          "name": "from",
          "type": "address"
        },
        {
          "internalType": "address",
          "name": "to",
          "type": "address"
        },
        {
          "internalType": "uint256",
          "name": "tokenId",
          "type": "uint256"
        }
      ],
      "name": "safeTransferFrom",
      "outputs": [],
      "stateMutability": "nonpayable",
      "type": "function"
    },
    {
      "inputs": [
        {
          "internalType": "address",
          "name": "from",
          "type": "address"
        },
        {
          "internalType": "address",
          "name": "to",
          "type": "address"
        },
        {
          "internalType": "uint256",
          "name": "tokenId",
          "type": "uint256"
        },
        {
          "internalType": "bytes",
          "name": "data",
          "type": "bytes"
        }
      ],
      "name": "safeTransferFrom",
      "outputs": [],
      "stateMutability": "nonpayable",
      "type": "function"
    },
    {
      "inputs": [
        {
          "internalType": "address",
          "name": "operator",
          "type": "address"
        },
        {
          "internalType": "bool",
          "name": "approved",
          "type": "bool"
        }
      ],
      "name": "setApprovalForAll",
      "outputs": [],
      "stateMutability": "nonpayable",
      "type": "function"
    },
    {
      "inputs": [
        {
          "internalType": "string",
          "name": "baseTokenUri_",
          "type": "string"
        }
      ],
      "name": "setBaseTokenUri",
      "outputs": [],
      "stateMutability": "nonpayable",
      "type": "function"
    },
    {
      "inputs": [
        {
          "internalType": "bool",
          "name": "isPublicMintEnabled_",
          "type": "bool"
        }
      ],
      "name": "setIsPublicMintEnabled",
      "outputs": [],
      "stateMutability": "nonpayable",
      "type": "function"
    },
    {
      "inputs": [
        {
          "internalType": "bytes4",
          "name": "interfaceId",
          "type": "bytes4"
        }
      ],
      "name": "supportsInterface",
      "outputs": [
        {
          "internalType": "bool",
          "name": "",
          "type": "bool"
        }
      ],
      "stateMutability": "view",
      "type": "function"
    },
    {
      "inputs": [],
      "name": "symbol",
      "outputs": [
        {
          "internalType": "string",
          "name": "",
          "type": "string"
        }
      ],
      "stateMutability": "view",
      "type": "function"
    },
    {
      "inputs": [
        {
          "internalType": "uint256",
          "name": "tokenId",
          "type": "uint256"
        }
      ],
      "name": "tokenURI",
      "outputs": [
        {
          "internalType": "string",
          "name": "",
          "type": "string"
        }
      ],
      "stateMutability": "view",
      "type": "function"
    },
    {
      "inputs": [
        {
          "internalType": "uint256",
          "name": "tokenId_",
          "type": "uint256"
        }
      ],
      "name": "tokenUri",
      "outputs": [
        {
          "internalType": "string",
          "name": "",
          "type": "string"
        }
      ],
      "stateMutability": "view",
      "type": "function"
    },
    {
      "inputs": [],
      "name": "totalSupply",
      "outputs": [
        {
          "internalType": "uint256",
          "name": "",
          "type": "uint256"
        }
      ],
      "stateMutability": "view",
      "type": "function"
    },
    {
      "inputs": [
        {
          "internalType": "address",
          "name": "from",
          "type": "address"
        },
        {
          "internalType": "address",
          "name": "to",
          "type": "address"
        },
        {
          "internalType": "uint256",
          "name": "tokenId",
          "type": "uint256"
        }
      ],
      "name": "transferFrom",
      "outputs": [],
      "stateMutability": "nonpayable",
      "type": "function"
    },
    {
      "inputs": [
        {
          "internalType": "address",
          "name": "newOwner",
          "type": "address"
        }
      ],
      "name": "transferOwnership",
      "outputs": [],
      "stateMutability": "nonpayable",
      "type": "function"
    },
    {
      "inputs": [
        {
          "internalType": "address",
          "name": "",
          "type": "address"
        }
      ],
      "name": "walletMints",
      "outputs": [
        {
          "internalType": "uint256",
          "name": "",
          "type": "uint256"
        }
      ],
      "stateMutability": "view",
      "type": "function"
    },
    {
      "inputs": [],
      "name": "withdraw",
      "outputs": [],
      "stateMutability": "nonpayable",
      "type": "function"
    },
    {
      "inputs": [],
      "name": "withdrawWallet",
      "outputs": [
        {
          "internalType": "address payable",
          "name": "",
          "type": "address"
        }
      ],
      "stateMutability": "view",
      "type": "function"
    }
  ],
  "bytecode": "0x60806040526040518060400160405280600981526020017f526f626f50756e6b7300000000000000000000000000000000000000000000008152506040518060400160405280600281526020017f5250000000000000000000000000000000000000000000000000000000000000815250816000908051906020019062000088929190620001bf565b508060019080519060200190620000a1929190620001bf565b505050620000c4620000b8620000f160201b60201c565b620000f960201b60201c565b66470de4df82000060078190555060006008819055506103e86009819055506003600a81905550620002d4565b600033905090565b6000600660009054906101000a900473ffffffffffffffffffffffffffffffffffffffff16905081600660006101000a81548173ffffffffffffffffffffffffffffffffffffffff021916908373ffffffffffffffffffffffffffffffffffffffff1602179055508173ffffffffffffffffffffffffffffffffffffffff168173ffffffffffffffffffffffffffffffffffffffff167f8be0079c531659141344cd1fd0a4f28419497f9722a3daafe3b4186f6b6457e060405160405180910390a35050565b828054620001cd906200029e565b90600052602060002090601f016020900481019282620001f157600085556200023d565b82601f106200020c57805160ff19168380011785556200023d565b828001600101855582156200023d579182015b828111156200023c5782518255916020019190600101906200021f565b5b5090506200024c919062000250565b5090565b5b808211156200026b57600081600090555060010162000251565b5090565b7f4e487b7100000000000000000000000000000000000000000000000000000000600052602260045260246000fd5b60006002820490506001821680620002b757607f821691505b60208210811415620002ce57620002cd6200026f565b5b50919050565b61358a80620002e46000396000f3fe6080604052600436106101b75760003560e01c806370a08231116100ec578063a22cb4651161008a578063d5abeb0111610064578063d5abeb01146105eb578063e985e9c514610616578063f0293fd314610653578063f2fde38b14610690576101b7565b8063a22cb4651461055c578063b88d4fde14610585578063c87b56dd146105ae576101b7565b80638da5cb5b116100c65780638da5cb5b146104c157806395652cfa146104ec57806395d89b4114610515578063a0712d6814610540576101b7565b806370a0823114610442578063715018a61461047f57806385d178f414610496576101b7565b80632373ac221161015957806342842e0e1161013357806342842e0e14610386578063453c2310146103af5780636352211e146103da5780636817c76c14610417576101b7565b80632373ac221461031d57806323b872dd146103465780633ccfd60b1461036f576101b7565b8063081812fc11610195578063081812fc1461024f578063095ea7b31461028c5780631675f455146102b557806318160ddd146102f2576101b7565b80630116bc2d146101bc57806301ffc9a7146101e757806306fdde0314610224575b600080fd5b3480156101c857600080fd5b506101d16106b9565b6040516101de919061204d565b60405180910390f35b3480156101f357600080fd5b5061020e600480360381019061020991906120d4565b6106cc565b60405161021b919061204d565b60405180910390f35b34801561023057600080fd5b506102396107ae565b604051610246919061219a565b60405180910390f35b34801561025b57600080fd5b50610276600480360381019061027191906121f2565b610840565b6040516102839190612260565b60405180910390f35b34801561029857600080fd5b506102b360048036038101906102ae91906122a7565b610886565b005b3480156102c157600080fd5b506102dc60048036038101906102d791906121f2565b61099e565b6040516102e9919061219a565b60405180910390f35b3480156102fe57600080fd5b50610307610a1a565b60405161031491906122f6565b60405180910390f35b34801561032957600080fd5b50610344600480360381019061033f919061233d565b610a20565b005b34801561035257600080fd5b5061036d6004803603810190610368919061236a565b610a45565b005b34801561037b57600080fd5b50610384610aa5565b005b34801561039257600080fd5b506103ad60048036038101906103a8919061236a565b610b7e565b005b3480156103bb57600080fd5b506103c4610b9e565b6040516103d191906122f6565b60405180910390f35b3480156103e657600080fd5b5061040160048036038101906103fc91906121f2565b610ba4565b60405161040e9190612260565b60405180910390f35b34801561042357600080fd5b5061042c610c56565b60405161043991906122f6565b60405180910390f35b34801561044e57600080fd5b50610469600480360381019061046491906123bd565b610c5c565b60405161047691906122f6565b60405180910390f35b34801561048b57600080fd5b50610494610d14565b005b3480156104a257600080fd5b506104ab610d28565b6040516104b8919061240b565b60405180910390f35b3480156104cd57600080fd5b506104d6610d4e565b6040516104e39190612260565b60405180910390f35b3480156104f857600080fd5b50610513600480360381019061050e919061248b565b610d78565b005b34801561052157600080fd5b5061052a610d96565b604051610537919061219a565b60405180910390f35b61055a600480360381019061055591906121f2565b610e28565b005b34801561056857600080fd5b50610583600480360381019061057e91906124d8565b610fff565b005b34801561059157600080fd5b506105ac60048036038101906105a79190612648565b611015565b005b3480156105ba57600080fd5b506105d560048036038101906105d091906121f2565b611077565b6040516105e2919061219a565b60405180910390f35b3480156105f757600080fd5b506106006110df565b60405161060d91906122f6565b60405180910390f35b34801561062257600080fd5b5061063d600480360381019061063891906126cb565b6110e5565b60405161064a919061204d565b60405180910390f35b34801561065f57600080fd5b5061067a600480360381019061067591906123bd565b611179565b60405161068791906122f6565b60405180910390f35b34801561069c57600080fd5b506106b760048036038101906106b291906123bd565b611191565b005b600b60009054906101000a900460ff1681565b60007f80ac58cd000000000000000000000000000000000000000000000000000000007bffffffffffffffffffffffffffffffffffffffffffffffffffffffff1916827bffffffffffffffffffffffffffffffffffffffffffffffffffffffff1916148061079757507f5b5e139f000000000000000000000000000000000000000000000000000000007bffffffffffffffffffffffffffffffffffffffffffffffffffffffff1916827bffffffffffffffffffffffffffffffffffffffffffffffffffffffff1916145b806107a757506107a682611215565b5b9050919050565b6060600080546107bd9061273a565b80601f01602080910402602001604051908101604052809291908181526020018280546107e99061273a565b80156108365780601f1061080b57610100808354040283529160200191610836565b820191906000526020600020905b81548152906001019060200180831161081957829003601f168201915b5050505050905090565b600061084b8261127f565b6004600083815260200190815260200160002060009054906101000a900473ffffffffffffffffffffffffffffffffffffffff169050919050565b600061089182610ba4565b90508073ffffffffffffffffffffffffffffffffffffffff168373ffffffffffffffffffffffffffffffffffffffff161415610902576040517f08c379a00000000000000000000000000000000000000000000000000000000081526004016108f9906127de565b60405180910390fd5b8073ffffffffffffffffffffffffffffffffffffffff166109216112ca565b73ffffffffffffffffffffffffffffffffffffffff161480610950575061094f8161094a6112ca565b6110e5565b5b61098f576040517f08c379a000000000000000000000000000000000000000000000000000000000815260040161098690612870565b60405180910390fd5b61099983836112d2565b505050565b60606109a98261138b565b6109e8576040517f08c379a00000000000000000000000000000000000000000000000000000000081526004016109df906128dc565b60405180910390fd5b600c6109f3836113f7565b604051602001610a04929190612a18565b6040516020818303038152906040529050919050565b60085481565b610a28611558565b80600b60006101000a81548160ff02191690831515021790555050565b610a56610a506112ca565b826115d6565b610a95576040517f08c379a0000000000000000000000000000000000000000000000000000000008152600401610a8c90612ab9565b60405180910390fd5b610aa083838361166b565b505050565b610aad611558565b6000600d60009054906101000a900473ffffffffffffffffffffffffffffffffffffffff1673ffffffffffffffffffffffffffffffffffffffff1647604051610af590612b0a565b60006040518083038185875af1925050503d8060008114610b32576040519150601f19603f3d011682016040523d82523d6000602084013e610b37565b606091505b5050905080610b7b576040517f08c379a0000000000000000000000000000000000000000000000000000000008152600401610b7290612b6b565b60405180910390fd5b50565b610b9983838360405180602001604052806000815250611015565b505050565b600a5481565b6000806002600084815260200190815260200160002060009054906101000a900473ffffffffffffffffffffffffffffffffffffffff169050600073ffffffffffffffffffffffffffffffffffffffff168173ffffffffffffffffffffffffffffffffffffffff161415610c4d576040517f08c379a0000000000000000000000000000000000000000000000000000000008152600401610c4490612bd7565b60405180910390fd5b80915050919050565b60075481565b60008073ffffffffffffffffffffffffffffffffffffffff168273ffffffffffffffffffffffffffffffffffffffff161415610ccd576040517f08c379a0000000000000000000000000000000000000000000000000000000008152600401610cc490612c69565b60405180910390fd5b600360008373ffffffffffffffffffffffffffffffffffffffff1673ffffffffffffffffffffffffffffffffffffffff168152602001908152602001600020549050919050565b610d1c611558565b610d2660006118d2565b565b600d60009054906101000a900473ffffffffffffffffffffffffffffffffffffffff1681565b6000600660009054906101000a900473ffffffffffffffffffffffffffffffffffffffff16905090565b610d80611558565b8181600c9190610d91929190611f8f565b505050565b606060018054610da59061273a565b80601f0160208091040260200160405190810160405280929190818152602001828054610dd19061273a565b8015610e1e5780601f10610df357610100808354040283529160200191610e1e565b820191906000526020600020905b815481529060010190602001808311610e0157829003601f168201915b5050505050905090565b600b60009054906101000a900460ff16610e77576040517f08c379a0000000000000000000000000000000000000000000000000000000008152600401610e6e90612cd5565b60405180910390fd5b60075481610e859190612d24565b3414610ec6576040517f08c379a0000000000000000000000000000000000000000000000000000000008152600401610ebd90612dca565b60405180910390fd5b60095481600854610ed79190612dea565b1115610f18576040517f08c379a0000000000000000000000000000000000000000000000000000000008152600401610f0f90612e8c565b60405180910390fd5b600a5481600e60003373ffffffffffffffffffffffffffffffffffffffff1673ffffffffffffffffffffffffffffffffffffffff16815260200190815260200160002054610f669190612dea565b1115610fa7576040517f08c379a0000000000000000000000000000000000000000000000000000000008152600401610f9e90612ef8565b60405180910390fd5b60005b81811015610ffb5760006001600854610fc39190612dea565b905060086000815480929190610fd890612f18565b9190505550610fe73382611998565b508080610ff390612f18565b915050610faa565b5050565b61101161100a6112ca565b83836119b6565b5050565b6110266110206112ca565b836115d6565b611065576040517f08c379a000000000000000000000000000000000000000000000000000000000815260040161105c90612ab9565b60405180910390fd5b61107184848484611b23565b50505050565b60606110828261127f565b600061108c611b7f565b905060008151116110ac57604051806020016040528060008152506110d7565b806110b6846113f7565b6040516020016110c7929190612f61565b6040516020818303038152906040525b915050919050565b60095481565b6000600560008473ffffffffffffffffffffffffffffffffffffffff1673ffffffffffffffffffffffffffffffffffffffff16815260200190815260200160002060008373ffffffffffffffffffffffffffffffffffffffff1673ffffffffffffffffffffffffffffffffffffffff16815260200190815260200160002060009054906101000a900460ff16905092915050565b600e6020528060005260406000206000915090505481565b611199611558565b600073ffffffffffffffffffffffffffffffffffffffff168173ffffffffffffffffffffffffffffffffffffffff161415611209576040517f08c379a000000000000000000000000000000000000000000000000000000000815260040161120090612ff7565b60405180910390fd5b611212816118d2565b50565b60007f01ffc9a7000000000000000000000000000000000000000000000000000000007bffffffffffffffffffffffffffffffffffffffffffffffffffffffff1916827bffffffffffffffffffffffffffffffffffffffffffffffffffffffff1916149050919050565b6112888161138b565b6112c7576040517f08c379a00000000000000000000000000000000000000000000000000000000081526004016112be90612bd7565b60405180910390fd5b50565b600033905090565b816004600083815260200190815260200160002060006101000a81548173ffffffffffffffffffffffffffffffffffffffff021916908373ffffffffffffffffffffffffffffffffffffffff160217905550808273ffffffffffffffffffffffffffffffffffffffff1661134583610ba4565b73ffffffffffffffffffffffffffffffffffffffff167f8c5be1e5ebec7d5bd14f71427d1e84f3dd0314c0f7b2291e5b200ac8c7c3b92560405160405180910390a45050565b60008073ffffffffffffffffffffffffffffffffffffffff166002600084815260200190815260200160002060009054906101000a900473ffffffffffffffffffffffffffffffffffffffff1673ffffffffffffffffffffffffffffffffffffffff1614159050919050565b6060600082141561143f576040518060400160405280600181526020017f30000000000000000000000000000000000000000000000000000000000000008152509050611553565b600082905060005b6000821461147157808061145a90612f18565b915050600a8261146a9190613046565b9150611447565b60008167ffffffffffffffff81111561148d5761148c61251d565b5b6040519080825280601f01601f1916602001820160405280156114bf5781602001600182028036833780820191505090505b5090505b6000851461154c576001826114d89190613077565b9150600a856114e791906130ab565b60306114f39190612dea565b60f81b818381518110611509576115086130dc565b5b60200101907effffffffffffffffffffffffffffffffffffffffffffffffffffffffffffff1916908160001a905350600a856115459190613046565b94506114c3565b8093505050505b919050565b6115606112ca565b73ffffffffffffffffffffffffffffffffffffffff1661157e610d4e565b73ffffffffffffffffffffffffffffffffffffffff16146115d4576040517f08c379a00000000000000000000000000000000000000000000000000000000081526004016115cb90613157565b60405180910390fd5b565b6000806115e283610ba4565b90508073ffffffffffffffffffffffffffffffffffffffff168473ffffffffffffffffffffffffffffffffffffffff161480611624575061162381856110e5565b5b8061166257508373ffffffffffffffffffffffffffffffffffffffff1661164a84610840565b73ffffffffffffffffffffffffffffffffffffffff16145b91505092915050565b8273ffffffffffffffffffffffffffffffffffffffff1661168b82610ba4565b73ffffffffffffffffffffffffffffffffffffffff16146116e1576040517f08c379a00000000000000000000000000000000000000000000000000000000081526004016116d8906131e9565b60405180910390fd5b600073ffffffffffffffffffffffffffffffffffffffff168273ffffffffffffffffffffffffffffffffffffffff161415611751576040517f08c379a00000000000000000000000000000000000000000000000000000000081526004016117489061327b565b60405180910390fd5b61175c838383611b96565b6117676000826112d2565b6001600360008573ffffffffffffffffffffffffffffffffffffffff1673ffffffffffffffffffffffffffffffffffffffff16815260200190815260200160002060008282546117b79190613077565b925050819055506001600360008473ffffffffffffffffffffffffffffffffffffffff1673ffffffffffffffffffffffffffffffffffffffff168152602001908152602001600020600082825461180e9190612dea565b92505081905550816002600083815260200190815260200160002060006101000a81548173ffffffffffffffffffffffffffffffffffffffff021916908373ffffffffffffffffffffffffffffffffffffffff160217905550808273ffffffffffffffffffffffffffffffffffffffff168473ffffffffffffffffffffffffffffffffffffffff167fddf252ad1be2c89b69c2b068fc378daa952ba7f163c4a11628f55a4df523b3ef60405160405180910390a46118cd838383611b9b565b505050565b6000600660009054906101000a900473ffffffffffffffffffffffffffffffffffffffff16905081600660006101000a81548173ffffffffffffffffffffffffffffffffffffffff021916908373ffffffffffffffffffffffffffffffffffffffff1602179055508173ffffffffffffffffffffffffffffffffffffffff168173ffffffffffffffffffffffffffffffffffffffff167f8be0079c531659141344cd1fd0a4f28419497f9722a3daafe3b4186f6b6457e060405160405180910390a35050565b6119b2828260405180602001604052806000815250611ba0565b5050565b8173ffffffffffffffffffffffffffffffffffffffff168373ffffffffffffffffffffffffffffffffffffffff161415611a25576040517f08c379a0000000000000000000000000000000000000000000000000000000008152600401611a1c906132e7565b60405180910390fd5b80600560008573ffffffffffffffffffffffffffffffffffffffff1673ffffffffffffffffffffffffffffffffffffffff16815260200190815260200160002060008473ffffffffffffffffffffffffffffffffffffffff1673ffffffffffffffffffffffffffffffffffffffff16815260200190815260200160002060006101000a81548160ff0219169083151502179055508173ffffffffffffffffffffffffffffffffffffffff168373ffffffffffffffffffffffffffffffffffffffff167f17307eab39ab6107e8899845ad3d59bd9653f200f220920489ca2b5937696c3183604051611b16919061204d565b60405180910390a3505050565b611b2e84848461166b565b611b3a84848484611bfb565b611b79576040517f08c379a0000000000000000000000000000000000000000000000000000000008152600401611b7090613379565b60405180910390fd5b50505050565b606060405180602001604052806000815250905090565b505050565b505050565b611baa8383611d92565b611bb76000848484611bfb565b611bf6576040517f08c379a0000000000000000000000000000000000000000000000000000000008152600401611bed90613379565b60405180910390fd5b505050565b6000611c1c8473ffffffffffffffffffffffffffffffffffffffff16611f6c565b15611d85578373ffffffffffffffffffffffffffffffffffffffff1663150b7a02611c456112ca565b8786866040518563ffffffff1660e01b8152600401611c6794939291906133ee565b602060405180830381600087803b158015611c8157600080fd5b505af1925050508015611cb257506040513d601f19601f82011682018060405250810190611caf919061344f565b60015b611d35573d8060008114611ce2576040519150601f19603f3d011682016040523d82523d6000602084013e611ce7565b606091505b50600081511415611d2d576040517f08c379a0000000000000000000000000000000000000000000000000000000008152600401611d2490613379565b60405180910390fd5b805181602001fd5b63150b7a0260e01b7bffffffffffffffffffffffffffffffffffffffffffffffffffffffff1916817bffffffffffffffffffffffffffffffffffffffffffffffffffffffff191614915050611d8a565b600190505b949350505050565b600073ffffffffffffffffffffffffffffffffffffffff168273ffffffffffffffffffffffffffffffffffffffff161415611e02576040517f08c379a0000000000000000000000000000000000000000000000000000000008152600401611df9906134c8565b60405180910390fd5b611e0b8161138b565b15611e4b576040517f08c379a0000000000000000000000000000000000000000000000000000000008152600401611e4290613534565b60405180910390fd5b611e5760008383611b96565b6001600360008473ffffffffffffffffffffffffffffffffffffffff1673ffffffffffffffffffffffffffffffffffffffff1681526020019081526020016000206000828254611ea79190612dea565b92505081905550816002600083815260200190815260200160002060006101000a81548173ffffffffffffffffffffffffffffffffffffffff021916908373ffffffffffffffffffffffffffffffffffffffff160217905550808273ffffffffffffffffffffffffffffffffffffffff16600073ffffffffffffffffffffffffffffffffffffffff167fddf252ad1be2c89b69c2b068fc378daa952ba7f163c4a11628f55a4df523b3ef60405160405180910390a4611f6860008383611b9b565b5050565b6000808273ffffffffffffffffffffffffffffffffffffffff163b119050919050565b828054611f9b9061273a565b90600052602060002090601f016020900481019282611fbd5760008555612004565b82601f10611fd657803560ff1916838001178555612004565b82800160010185558215612004579182015b82811115612003578235825591602001919060010190611fe8565b5b5090506120119190612015565b5090565b5b8082111561202e576000816000905550600101612016565b5090565b60008115159050919050565b61204781612032565b82525050565b6000602082019050612062600083018461203e565b92915050565b6000604051905090565b600080fd5b600080fd5b60007fffffffff0000000000000000000000000000000000000000000000000000000082169050919050565b6120b18161207c565b81146120bc57600080fd5b50565b6000813590506120ce816120a8565b92915050565b6000602082840312156120ea576120e9612072565b5b60006120f8848285016120bf565b91505092915050565b600081519050919050565b600082825260208201905092915050565b60005b8381101561213b578082015181840152602081019050612120565b8381111561214a576000848401525b50505050565b6000601f19601f8301169050919050565b600061216c82612101565b612176818561210c565b935061218681856020860161211d565b61218f81612150565b840191505092915050565b600060208201905081810360008301526121b48184612161565b905092915050565b6000819050919050565b6121cf816121bc565b81146121da57600080fd5b50565b6000813590506121ec816121c6565b92915050565b60006020828403121561220857612207612072565b5b6000612216848285016121dd565b91505092915050565b600073ffffffffffffffffffffffffffffffffffffffff82169050919050565b600061224a8261221f565b9050919050565b61225a8161223f565b82525050565b60006020820190506122756000830184612251565b92915050565b6122848161223f565b811461228f57600080fd5b50565b6000813590506122a18161227b565b92915050565b600080604083850312156122be576122bd612072565b5b60006122cc85828601612292565b92505060206122dd858286016121dd565b9150509250929050565b6122f0816121bc565b82525050565b600060208201905061230b60008301846122e7565b92915050565b61231a81612032565b811461232557600080fd5b50565b60008135905061233781612311565b92915050565b60006020828403121561235357612352612072565b5b600061236184828501612328565b91505092915050565b60008060006060848603121561238357612382612072565b5b600061239186828701612292565b93505060206123a286828701612292565b92505060406123b3868287016121dd565b9150509250925092565b6000602082840312156123d3576123d2612072565b5b60006123e184828501612292565b91505092915050565b60006123f58261221f565b9050919050565b612405816123ea565b82525050565b600060208201905061242060008301846123fc565b92915050565b600080fd5b600080fd5b600080fd5b60008083601f84011261244b5761244a612426565b5b8235905067ffffffffffffffff8111156124685761246761242b565b5b60208301915083600182028301111561248457612483612430565b5b9250929050565b600080602083850312156124a2576124a1612072565b5b600083013567ffffffffffffffff8111156124c0576124bf612077565b5b6124cc85828601612435565b92509250509250929050565b600080604083850312156124ef576124ee612072565b5b60006124fd85828601612292565b925050602061250e85828601612328565b9150509250929050565b600080fd5b7f4e487b7100000000000000000000000000000000000000000000000000000000600052604160045260246000fd5b61255582612150565b810181811067ffffffffffffffff821117156125745761257361251d565b5b80604052505050565b6000612587612068565b9050612593828261254c565b919050565b600067ffffffffffffffff8211156125b3576125b261251d565b5b6125bc82612150565b9050602081019050919050565b82818337600083830152505050565b60006125eb6125e684612598565b61257d565b90508281526020810184848401111561260757612606612518565b5b6126128482856125c9565b509392505050565b600082601f83011261262f5761262e612426565b5b813561263f8482602086016125d8565b91505092915050565b6000806000806080858703121561266257612661612072565b5b600061267087828801612292565b945050602061268187828801612292565b9350506040612692878288016121dd565b925050606085013567ffffffffffffffff8111156126b3576126b2612077565b5b6126bf8782880161261a565b91505092959194509250565b600080604083850312156126e2576126e1612072565b5b60006126f085828601612292565b925050602061270185828601612292565b9150509250929050565b7f4e487b7100000000000000000000000000000000000000000000000000000000600052602260045260246000fd5b6000600282049050600182168061275257607f821691505b602082108114156127665761276561270b565b5b50919050565b7f4552433732313a20617070726f76616c20746f2063757272656e74206f776e6560008201527f7200000000000000000000000000000000000000000000000000000000000000602082015250565b60006127c860218361210c565b91506127d38261276c565b604082019050919050565b600060208201905081810360008301526127f7816127bb565b9050919050565b7f4552433732313a20617070726f76652063616c6c6572206973206e6f7420746f60008201527f6b656e206f776e6572206e6f7220617070726f76656420666f7220616c6c0000602082015250565b600061285a603e8361210c565b9150612865826127fe565b604082019050919050565b600060208201905081810360008301526128898161284d565b9050919050565b7f546f6b656e20646f6573206e6f74206578697374210000000000000000000000600082015250565b60006128c660158361210c565b91506128d182612890565b602082019050919050565b600060208201905081810360008301526128f5816128b9565b9050919050565b600081905092915050565b60008190508160005260206000209050919050565b600081546129298161273a565b61293381866128fc565b9450600182166000811461294e576001811461295f57612992565b60ff19831686528186019350612992565b61296885612907565b60005b8381101561298a5781548189015260018201915060208101905061296b565b838801955050505b50505092915050565b60006129a682612101565b6129b081856128fc565b93506129c081856020860161211d565b80840191505092915050565b7f2e6a736f6e000000000000000000000000000000000000000000000000000000600082015250565b6000612a026005836128fc565b9150612a0d826129cc565b600582019050919050565b6000612a24828561291c565b9150612a30828461299b565b9150612a3b826129f5565b91508190509392505050565b7f4552433732313a2063616c6c6572206973206e6f7420746f6b656e206f776e6560008201527f72206e6f7220617070726f766564000000000000000000000000000000000000602082015250565b6000612aa3602e8361210c565b9150612aae82612a47565b604082019050919050565b60006020820190508181036000830152612ad281612a96565b9050919050565b600081905092915050565b50565b6000612af4600083612ad9565b9150612aff82612ae4565b600082019050919050565b6000612b1582612ae7565b9150819050919050565b7f7769746864726177206661696c65640000000000000000000000000000000000600082015250565b6000612b55600f8361210c565b9150612b6082612b1f565b602082019050919050565b60006020820190508181036000830152612b8481612b48565b9050919050565b7f4552433732313a20696e76616c696420746f6b656e2049440000000000000000600082015250565b6000612bc160188361210c565b9150612bcc82612b8b565b602082019050919050565b60006020820190508181036000830152612bf081612bb4565b9050919050565b7f4552433732313a2061646472657373207a65726f206973206e6f74206120766160008201527f6c6964206f776e65720000000000000000000000000000000000000000000000602082015250565b6000612c5360298361210c565b9150612c5e82612bf7565b604082019050919050565b60006020820190508181036000830152612c8281612c46565b9050919050565b7f6d696e74696e67206973206e6f7420656e61626c656400000000000000000000600082015250565b6000612cbf60168361210c565b9150612cca82612c89565b602082019050919050565b60006020820190508181036000830152612cee81612cb2565b9050919050565b7f4e487b7100000000000000000000000000000000000000000000000000000000600052601160045260246000fd5b6000612d2f826121bc565b9150612d3a836121bc565b9250817fffffffffffffffffffffffffffffffffffffffffffffffffffffffffffffffff0483118215151615612d7357612d72612cf5565b5b828202905092915050565b7f77726f6e67206d696e742076616c756500000000000000000000000000000000600082015250565b6000612db460108361210c565b9150612dbf82612d7e565b602082019050919050565b60006020820190508181036000830152612de381612da7565b9050919050565b6000612df5826121bc565b9150612e00836121bc565b9250827fffffffffffffffffffffffffffffffffffffffffffffffffffffffffffffffff03821115612e3557612e34612cf5565b5b828201905092915050565b7f736f6c64206f7574000000000000000000000000000000000000000000000000600082015250565b6000612e7660088361210c565b9150612e8182612e40565b602082019050919050565b60006020820190508181036000830152612ea581612e69565b9050919050565b7f657863656564206d61782077616c6c6574000000000000000000000000000000600082015250565b6000612ee260118361210c565b9150612eed82612eac565b602082019050919050565b60006020820190508181036000830152612f1181612ed5565b9050919050565b6000612f23826121bc565b91507fffffffffffffffffffffffffffffffffffffffffffffffffffffffffffffffff821415612f5657612f55612cf5565b5b600182019050919050565b6000612f6d828561299b565b9150612f79828461299b565b91508190509392505050565b7f4f776e61626c653a206e6577206f776e657220697320746865207a65726f206160008201527f6464726573730000000000000000000000000000000000000000000000000000602082015250565b6000612fe160268361210c565b9150612fec82612f85565b604082019050919050565b6000602082019050818103600083015261301081612fd4565b9050919050565b7f4e487b7100000000000000000000000000000000000000000000000000000000600052601260045260246000fd5b6000613051826121bc565b915061305c836121bc565b92508261306c5761306b613017565b5b828204905092915050565b6000613082826121bc565b915061308d836121bc565b9250828210156130a05761309f612cf5565b5b828203905092915050565b60006130b6826121bc565b91506130c1836121bc565b9250826130d1576130d0613017565b5b828206905092915050565b7f4e487b7100000000000000000000000000000000000000000000000000000000600052603260045260246000fd5b7f4f776e61626c653a2063616c6c6572206973206e6f7420746865206f776e6572600082015250565b600061314160208361210c565b915061314c8261310b565b602082019050919050565b6000602082019050818103600083015261317081613134565b9050919050565b7f4552433732313a207472616e736665722066726f6d20696e636f72726563742060008201527f6f776e6572000000000000000000000000000000000000000000000000000000602082015250565b60006131d360258361210c565b91506131de82613177565b604082019050919050565b60006020820190508181036000830152613202816131c6565b9050919050565b7f4552433732313a207472616e7366657220746f20746865207a65726f2061646460008201527f7265737300000000000000000000000000000000000000000000000000000000602082015250565b600061326560248361210c565b915061327082613209565b604082019050919050565b6000602082019050818103600083015261329481613258565b9050919050565b7f4552433732313a20617070726f766520746f2063616c6c657200000000000000600082015250565b60006132d160198361210c565b91506132dc8261329b565b602082019050919050565b60006020820190508181036000830152613300816132c4565b9050919050565b7f4552433732313a207472616e7366657220746f206e6f6e20455243373231526560008201527f63656976657220696d706c656d656e7465720000000000000000000000000000602082015250565b600061336360328361210c565b915061336e82613307565b604082019050919050565b6000602082019050818103600083015261339281613356565b9050919050565b600081519050919050565b600082825260208201905092915050565b60006133c082613399565b6133ca81856133a4565b93506133da81856020860161211d565b6133e381612150565b840191505092915050565b60006080820190506134036000830187612251565b6134106020830186612251565b61341d60408301856122e7565b818103606083015261342f81846133b5565b905095945050505050565b600081519050613449816120a8565b92915050565b60006020828403121561346557613464612072565b5b60006134738482850161343a565b91505092915050565b7f4552433732313a206d696e7420746f20746865207a65726f2061646472657373600082015250565b60006134b260208361210c565b91506134bd8261347c565b602082019050919050565b600060208201905081810360008301526134e1816134a5565b9050919050565b7f4552433732313a20746f6b656e20616c7265616479206d696e74656400000000600082015250565b600061351e601c8361210c565b9150613529826134e8565b602082019050919050565b6000602082019050818103600083015261354d81613511565b905091905056fea26469706673582212209eac05a0b6f8d16c83064abc7339af78b6aacfa32bb99c2dd8bfffe71daed5c064736f6c63430008090033",
  "linkReferences": {},
  "deployedLinkReferences": {}
}